{
  "_format": "hh-sol-artifact-1",
  "contractName": "Implementation_v1",
  "sourceName": "contracts/Implementation_V1.sol",
  "abi": [
    {
      "inputs": [],
      "name": "InvalidInitialization",
      "type": "error"
    },
    {
      "inputs": [],
      "name": "NotInitializing",
      "type": "error"
    },
    {
      "anonymous": false,
      "inputs": [
        {
          "indexed": false,
          "internalType": "uint64",
          "name": "version",
          "type": "uint64"
        }
      ],
      "name": "Initialized",
      "type": "event"
    },
    {
      "inputs": [],
      "name": "getVersion",
      "outputs": [
        {
          "internalType": "string",
          "name": "",
          "type": "string"
        }
      ],
      "stateMutability": "pure",
      "type": "function"
    },
    {
      "inputs": [
        {
          "internalType": "address",
          "name": "_owner",
          "type": "address"
        }
      ],
      "name": "initialize",
      "outputs": [],
      "stateMutability": "nonpayable",
      "type": "function"
    },
    {
      "inputs": [],
      "name": "number",
      "outputs": [
        {
          "internalType": "uint256",
          "name": "",
          "type": "uint256"
        }
      ],
      "stateMutability": "view",
      "type": "function"
    },
    {
      "inputs": [],
      "name": "owner",
      "outputs": [
        {
          "internalType": "address",
          "name": "",
          "type": "address"
        }
      ],
      "stateMutability": "view",
      "type": "function"
    },
    {
      "inputs": [
        {
          "internalType": "uint256",
          "name": "_number",
          "type": "uint256"
        }
      ],
      "name": "setNumber",
      "outputs": [],
      "stateMutability": "nonpayable",
      "type": "function"
    }
  ],
  "bytecode": "0x608060405234801561001057600080fd5b506102e1806100206000396000f3fe608060405234801561001057600080fd5b50600436106100575760003560e01c80630d8e6e2c1461005c5780633fb5c1cb1461008c5780638381f58a146100a15780638da5cb5b146100b8578063c4d66de8146100e3575b600080fd5b60408051808201825260058152640312e302e360dc1b602082015290516100839190610213565b60405180910390f35b61009f61009a366004610262565b600055565b005b6100aa60005481565b604051908152602001610083565b6001546100cb906001600160a01b031681565b6040516001600160a01b039091168152602001610083565b61009f6100f136600461027b565b7ff0c57e16840df040f15088dc2f81fe391c3923bec73e23a9662efc9c229c6a008054600160401b810460ff16159067ffffffffffffffff166000811580156101375750825b905060008267ffffffffffffffff1660011480156101545750303b155b905081158015610162575080155b156101805760405163f92ee8a960e01b815260040160405180910390fd5b845467ffffffffffffffff1916600117855583156101aa57845460ff60401b1916600160401b1785555b600180546001600160a01b0319166001600160a01b038816179055831561020b57845460ff60401b19168555604051600181527fc7f505b2f371ae2175ee4913f4499e1f2633a7b5936321eed1cdaeb6115181d29060200160405180910390a15b505050505050565b60006020808352835180602085015260005b8181101561024157858101830151858201604001528201610225565b506000604082860101526040601f19601f8301168501019250505092915050565b60006020828403121561027457600080fd5b5035919050565b60006020828403121561028d57600080fd5b81356001600160a01b03811681146102a457600080fd5b939250505056fea2646970667358221220184acb9d5ad33447412afa7731e2005265a07a61a8179429293b6b9dd1cf2ea464736f6c63430008180033",
  "linkReferences": {},
  "deployedLinkReferences": {}
}